:100000000C942A000C9434000C9434000C943400AA
:100010000C9434000C9434000C9434000C94340090
:100020000C9434000C9434000C9434000C94340080
:100030000C9434000C9434000C9434000C94340070
:100040000C9434000C9434000C9434000C94340060
:100050000C94340011241FBECFE5D8E0DEBFCDBF25
:100060000E9446000C946F000C94000087B3806BD4
:1000700087BB8DB181658DB90895C4988FB9779B81
:10008000FECF6FB9779BFECFC49A08950E943600C9
:100090006FEF89E00E943D006FEF8AE00E943D0013
:1000A00067EF8BE00E943D0061E08CE00E943D0024
:1000B00010E0612FC1E0D1E0D60F8C2F0E943D00EF
:1000C0002FE38DE093E0215080409040E1F700C0A5
:1000D0000000CF5F6D2FC93071F7185FEACFF89439
:0200E000FFCF50
:00000001FF
