:100000000C942A000C9434000C9434000C943400AA
:100010000C9434000C9434000C9434000C94340090
:100020000C9434000C9434000C9434000C94340080
:100030000C9434000C9434000C9434000C94340070
:100040000C9434000C9434000C9434000C94340060
:100050000C94340011241FBECFE5D8E0DEBFCDBF25
:100060000E9442000C944D000C940000BE9A87B38D
:100070008F7487BB80E48DB908958FB9779BFECFCD
:100080008FB108958FEF8ABB0E943600CFEF8C2F7F
:0E0090000E943D008BBBC150FACFF894FFCF09
:00000001FF
