:100000000C942A000C9436000C9450000C946A0056
:100010000C9434000C9434000C9434000C94340090
:100020000C9434000C9434000C9434000C94340080
:100030000C9434000C9434000C9434000C94340070
:100040000C9434000C9434000C9434000C94340060
:100050000C94340011241FBECFE5D8E0DEBFCDBF25
:100060000E9484000C9498000C9400001F920F9240
:100070000FB60F9211242F938F939F93959A2FEF82
:1000800080E792E0215080409040E1F700C00000FE
:100090009F918F912F910F900FBE0F901F901895E9
:1000A0001F920F920FB60F9211242F938F939F934D
:1000B000969A2FEF80E792E0215080409040E1F740
:1000C00000C000009F918F912F910F900FBE0F9055
:1000D0001F9018951F920F920FB60F9211242F9315
:1000E0008F939F93979A2FEF80E792E02150804063
:1000F0009040E1F700C000009F918F912F910F90E9
:100100000FBE0F901F90189585B78D6085BF85B77E
:100110008D7F85BF84B78F7B84BF8BB7806E8BBF8D
:10012000789481B3806E81BB82B38F7182BBFCCF28
:04013000F894FFCF71
:00000001FF
