S01700006C6162325F7377697463684C4544732E7372656373
S11300000C942A000C9434000C9434000C943400A6
S11300100C9434000C9434000C9434000C9434008C
S11300200C9434000C9434000C9434000C9434007C
S11300300C9434000C9434000C9434000C9434006C
S11300400C9434000C9434000C9434000C9434005C
S11300500C94340011241FBECFE5D8E0DEBFCDBF21
S11300600E9436000C945B000C9400008FEF8ABB56
S1130070A098A89A21E030E061E070E083B3982F63
S1130080917080FD10C0222371F08BB3AB01032E5D
S113009002C0440F551F0A94E2F7482B4BBB3F5F45
S11300A0383008F030E0EFE1FEE43197F1F700C0BA
S10D00B00000292FE3CFF894FFCFDE
S9030000FC
