:100000000C942A000C9434000C9434000C943400AA
:100010000C9434000C9434000C9434000C94340090
:100020000C9434000C9434000C9434000C94340080
:100030000C9434000C9434000C9434000C94340070
:100040000C9434000C9434000C9434000C94340060
:100050000C94340011241FBECFE5D8E0DEBFCDBF25
:100060000E9436000C945D000C94000081B392B3A2
:10007000806192BB81BB80B791B7846091BF80BF24
:1000800081B392B38E7F92BB81BB80B391B380FF6B
:10009000FCCF82B393B3806193BB82BB2FEF80E729
:1000A00092E0215080409040E1F700C0000082B310
:0E00B00093B38F7E93BB82BBE8CFF894FFCF53
:00000001FF
