:100000000C942A000C9447000C9447000C94470071
:100010000C9447000C9447000C9447000C94470044
:100020000C9447000C9447000C9447000C94470034
:100030000C9447000C9447000C9447000C94470024
:100040000C9447000C9447000C9447000C94470014
:100050000C94470011241FBECFE5D8E0DEBFCDBF12
:1000600010E0A0E6B0E0E2EBF8E002C005900D92EF
:10007000A037B107D9F720E0A0E7B0E001C01D929A
:10008000AA37B207E1F70E94D3000C9457040C94EE
:100090000000C39883ED90E30197F1F700C00000E2
:1000A000C39A08951ABAC29AC1980E9449008FEF64
:1000B0008ABBC2980895CF93C82F0E945200CBBB31
:1000C000C2980E944900CF91089581E00E945B0090
:1000D000089587E893E10197F1F700C000000E94BE
:1000E000520087B38E6087BB88B3817F88BB8FEF58
:1000F0008ABB85EA9EE00197F1F700C000000E94EC
:10010000650088E30E945B0086E00E945B0080E857
:100110000E945B008FE00E945B000895CF93C82F80
:100120000E945200C19ACBBBC19AC2980E9449005A
:10013000CF9108950F931F93CF93DF938C01C0E06D
:10014000D0E015C021960E948E00C031D10521F467
:1001500080EC0E945B000BC0CE018097029738F4C0
:100160000E94650080E80E945B00C0E0D0E0F801DA
:1001700081918F018111E6CFDF91CF911F910F9176
:100180000895811107C0603168F480E8860F0E94ED
:100190005B000895813031F4603120F480EC860FEB
:1001A0000E945B000895CF93DF93CDB7DEB72A9707
:1001B0000FB6F894DEBF0FBECDBF0E9469000E944B
:1001C000080180E690E00E949A008BE690E00E9491
:1001D0003E0260E081E00E94C100CE0101967C01F8
:1001E00010E00E941402882311F0193061F4E1E05C
:1001F000F0E0EC0FFD1FE10FF11D1082CE01019622
:100200000E949A00E6CFF70181937F011F5FE9CF3B
:100210001F93CF93DF9380917000823031F0833051
:1002200031F0813031F4D0E105C0D8E003C0D8E12D
:1002300001C0D0E080917100813041F120F0823026
:1002400009F447C06BC06091770080917800782FE7
:100250007370072E000C880B990B0E945E0320E040
:1002600030E040E851E40E94EA039B01AC0160E009
:1002700074E284E79BE40E94BB0220E030E040E0AF
:100280005FE30E944E02C0E010E050C06091770032
:1002900080917800782F7370072E000C880B990BD3
:1002A0000E945E0320E030E040E051E40E94EA0357
:1002B0009B01AC0160E074E284E79BE40E94BB0216
:1002C00020E030E040E05FE30E944E02C0E012E038
:1002D0002DC06091770080917800782F7370072E81
:1002E000000C880B990B0E945E039B01AC010E94DD
:1002F0004F029B01AC0160E074E284E79BE40E9442
:10030000BB0220E030E040E05FE30E944E0220911B
:100310007600213049F4C1E410E008C060E070E0EC
:10032000CB01C0E010E002C0C0E410E020917200F8
:10033000222319F0213019F003C01E7F01C0116083
:1003400020917300233089F028F4213051F02230BD
:1003500051F012C0263069F0273069F0253061F481
:1003600006C0D06809C0D06407C0D06205C0D06A9A
:1003700003C0D06601C0D06E20917400223091F08D
:1003800028F4222341F0213049F015C0233071F0C8
:10039000243079F010C0DB7FC97F0DC0DB7FCB7FBD
:1003A000C26009C0DB7FCD7FC46005C0DB7FC66053
:1003B00002C0D460C66020917500223089F028F414
:1003C000222349F0213049F015C0243079F058F04B
:1003D000253079F00FC0C77C0DC0CF7CC8600AC043
:1003E000C77EC06207C0CF7EC86204C0C77FC0633B
:1003F00001C0C8630E942D0370BD69B91BB9C0BD9F
:10040000DAB9DF91CF911F9108955D9BFECF2091C6
:100410007400243039F42AB12E7FAC014427517086
:10042000252B2AB98CB908958BB18BB12BB19BB117
:10043000382F32953F70822F869586958695832B2F
:1004400096959695892B80FF11C05C9B04C083E034
:10045000809379000BC05B9B04C082E0809379009D
:1004600005C05A9B03C081E080937900809174009D
:10047000843009F48AB18CB190E00895CF93DF9372
:10048000EC018881882339F0219690E00E940502D2
:1004900089918111FACFDF91CF9108955058BB27F0
:1004A000AA270E9466020C94B0030E94A20338F0AF
:1004B0000E94A90320F039F49F3F19F426F40C940C
:1004C0009F030EF4E095E7FB0C949903E92F0E943B
:1004D000C10358F3BA17620773078407950720F022
:1004E00079F4A6F50C94E3030EF4E0950B2EBA2FE5
:1004F000A02D0B01B90190010C01CA01A00111242A
:10050000FF27591B99F0593F50F4503E68F11A16D5
:10051000F040A22F232F342F4427585FF3CF469566
:1005200037952795A795F0405395C9F77EF41F1688
:10053000BA0B620B730B840BBAF09150A1F0FF0F52
:10054000BB1F661F771F881FC2F70EC0BA0F621F3E
:10055000731F841F48F4879577956795B795F7952E
:100560009E3F08F0B0CF9395880F08F09927EE0FC3
:100570009795879508950E94CF020C94B0030E942E
:10058000A90358F00E94A20340F029F45F3F29F02C
:100590000C94990351110C94E4030C949F030E9452
:1005A000C10368F39923B1F3552391F3951B550BC0
:1005B000BB27AA2762177307840738F09F5F5F4F36
:1005C000220F331F441FAA1FA9F335D00E2E3AF075
:1005D000E0E832D091505040E695001CCAF72BD08D
:1005E000FE2F29D0660F771F881FBB1F26173707DE
:1005F0004807AB07B0E809F0BB0B802DBF01FF2710
:1006000093585F4F3AF09E3F510578F00C94990350
:100610000C94E4035F3FE4F3983ED4F3869577951A
:100620006795B795F7959F5FC9F7880F911D9695C8
:10063000879597F90895E1E0660F771F881FBB1F24
:10064000621773078407BA0720F0621B730B840BD1
:10065000BA0BEE1F88F7E09508950E94C90388F051
:100660009F5798F0B92F9927B751B0F0E1F0660F76
:10067000771F881F991F1AF0BA95C9F714C0B130B7
:1006800091F00E94E303B1E008950C94E303672F17
:10069000782F8827B85F39F0B93FCCF386957795E6
:1006A0006795B395D9F73EF49095809570956195CF
:1006B0007F4F8F4F9F4F0895E89409C097FB3EF4FA
:1006C00090958095709561957F4F8F4F9F4F99239F
:1006D000A9F0F92F96E9BB279395F695879577951D
:1006E0006795B795F111F8CFFAF4BB0F11F460FFDD
:1006F0001BC06F5F7F4F8F4F9F4F16C0882311F035
:1007000096E911C0772321F09EE8872F762F05C048
:10071000662371F096E8862F70E060E02AF09A95E3
:10072000660F771F881FDAF7880F9695879597F9D8
:10073000089597F99F6780E870E060E008959FEF63
:1007400080EC089500240A94161617061806090668
:10075000089500240A941216130614060506089537
:10076000092E0394000C11F4882352F0BB0F40F4BF
:10077000BF2B11F460FF04C06F5F7F4F8F4F9F4FFF
:10078000089557FD9058440F551F59F05F3F71F081
:100790004795880F97FB991F61F09F3F79F08795E8
:1007A0000895121613061406551FF2CF4695F1DF71
:1007B00008C0161617061806991FF1CF8695710501
:1007C000610508940895E894BB2766277727CB0135
:1007D00097F908950E94FD030C94B0030E94A203B0
:1007E00038F00E94A90320F0952311F00C9499038E
:1007F0000C949F0311240C94E4030E94C10370F332
:10080000959FC1F3950F50E0551F629FF001729FB5
:10081000BB27F00DB11D639FAA27F00DB11DAA1FC4
:10082000649F6627B00DA11D661F829F2227B00D11
:10083000A11D621F739FB00DA11D621F839FA00D9C
:10084000611D221F749F3327A00D611D231F849FEC
:10085000600D211D822F762F6A2F11249F57504043
:100860009AF0F1F088234AF0EE0FFF1FBB1F661FBE
:10087000771F881F91505040A9F79E3F510580F087
:100880000C9499030C94E4035F3FE4F3983ED4F393
:10089000869577956795B795F795E7959F5FC1F72B
:1008A000FE2B880F911D9695879597F90895F894DA
:0208B000FFCF78
:1008B20048656C6C6F20554152540048494D000008
:00000001FF
