S01200006C6162315F386C6564732E7372656373
S11300000C942A000C9434000C9434000C943400A6
S11300100C9434000C9434000C9434000C9434008C
S11300200C9434000C9434000C9434000C9434007C
S11300300C9434000C9434000C9434000C9434006C
S11300400C9434000C9434000C9434000C9434005C
S11300500C94340011241FBECFE5D8E0DEBFCDBF21
S11300600E9436000C947F000C9400008FEF8ABB32
S113007061E070E080E090E04BB39B01082E02C089
S1130080220F331F0A94E2F7242B2BBB2FEF30E708
S113009042E0215030404040E1F700C000000196AA
S11300A08830910549F78FEF94E32CE0815090401C
S11300B02040E1F700C0000087E090E03BB3AB01D3
S11300C0082E02C0440F551F0A94E2F7242F2095EE
S11300D023232BBB3FEF40E722E031504040204038
S11300E0E1F700C00000019748F74FEF84E39CE07C
S11300F0415080409040E1F700C00000BBCFF8942D
S1050100FFCF2B
S9030000FC
