:100000000C942A000C9434000C9434000C943400AA
:100010000C9434000C9434000C9434000C94340090
:100020000C9434000C9434000C9434000C94340080
:100030000C9434000C9434000C9434000C94340070
:100040000C9434000C9434000C9434000C94340060
:100050000C94340011241FBECFE5D8E0DEBFCDBF25
:100060000E9461000C94A1000C9400009B01AC0163
:1000700060E074E284EF90E00E947F00DA01C90141
:100080004097A109B109B695A7959795879580B92D
:10009000089584EA86BF86B781B18830E9F708956C
:1000A00083B984E886BF06B607FEFDCF089584ECC9
:1000B00086BF06B607FEFDCF83B1089584E986BFEB
:1000C00008958FEF8ABB68E470E080E090E00E94C2
:1000D00036002FEF80E792E0215080409040E1F71A
:1000E00000C000000E94490081ED0E94500080E0A5
:1000F0000E945700C82F0E945E00CBBBEACFA1E24E
:100100001A2EAA1BBB1BFD010DC0AA1FBB1FEE1F91
:10011000FF1FA217B307E407F50720F0A21BB30BDC
:10012000E40BF50B661F771F881F991F1A9469F758
:1001300060957095809590959B01AC01BD01CF01B4
:060140000895F894FFCFC2
:00000001FF
